:020000040800F2
:10000000FCFF01200D1C0000491C0000491C0000E1
:10001000491C0000491C0000491C0000491C00004C
:10002000491C0000491C0000491C0000491C00003C
:10003000491C0000491C0000491C0000491C00002C
:10004000491C0000491C0000491C0000491C00001C
:10005000491C0000491C0000491C0000491C00000C
:10006000491C0000491C0000491C0000491C0000FC
:100070002D1C0000491C0000491C0000491C000008
:10008000491C0000491C0000491C0000491C0000DC
:10009000491C0000491C0000491C0000491C0000CC
:1000A000491C0000491C0000491C0000491C0000BC
:1000B000491C0000491C0000491C0000491C0000AC
:1000C000491C0000491C0000491C0000491C00009C
:1000D000491C0000491C0000491C0000491C00008C
:1000E000491C0000491C0000491C0000491C00007C
:1000F000491C0000491C0000491C0000491C00006C
:10010000491C0000491C0000491C0000491C00005B
:10011000491C0000491C0000D51F0000F11F000011
:10012000491C0000491C0000491C0000491C00003B
:10013000491C0000491C0000491C0000491C00002B
:10014000491C0000491C0000491C0000491C00001B
:10015000491C0000491C0000491C0000491C00000B
:10016000491C0000491C0000491C0000491C0000FB
:10017000491C0000491C0000491C0000491C0000EB
:10018000491C0000491C000081B01E4900EA010121
:100190000846002212E001202CE002202AE0042080
:1001A00028E0082026E0102024E0202022E0402043
:1001B00020E080201EE040F200101BE0124988423F
:1001C000E9D012498842E8D011498842E7D0114964
:1001D0008842E6D010498842E5D010498842E4D0F0
:1001E0000F498842E3D00F498842E2D00E49884245
:1001F000E1D010460D49096841EA00020B490A6046
:1002000001B0704700FCFFFF000002400004024004
:1002100000080240000C024000100240001402409E
:1002200000180240001C024000200240303802400A
:1002300084B0CDF800E08DB21646864B00EA030389
:100240001F461846FFF7A0FFB5F1FF0F20D13C680D
:10025000814B04EA03031846804B9E4214D145F2B9
:10026000555340EA03033B603D1D2C686FF0FF03CC
:1002700004EA03032B6007F208052C684FF6FF73AE
:1002800044EA03032B60E1E0422E01D13860DDE057
:10029000734B9D4213D1714B9E420BD14FF055339E
:1002A0003B603C1D0023236007F208044FF0FF333E
:1002B0002360CBE0422E02D100233B60C6E006F073
:1002C00001030BB103200AE006F008030BB1022082
:1002D00005E006F004030BB1012000E00020614BB3
:1002E00006EA03030BB103210AE006F480630BB1B5
:1002F000022105E006F400730BB1012100E00021AA
:1003000006F020030BB1012200E0002206F4807306
:100310000BB1022305E006F080030BB1012300E0DE
:10032000002340F2000A01921FFA85F9B046064602
:1003300018460A460199BAF1100F80F087804FF0F5
:10034000010303FA0AF409EA0403A34240F07B80A4
:100350004FEA4A044FF00303A340DC433B682340C9
:100360003B604FEA4A0306FA03F43B6823433B60D1
:1003700008F00C033BB307F208054FEA4A044FF0BC
:100380000303A340DC432B6823402B6007F20805DE
:100390004FEA4A0302FA03F42B6823432B603D1D06
:1003A0001FFA8AF44FF00103A340DC432B6823407B
:1003B0002B603D1D1FFA8AF48BB203FA04F4A4B239
:1003C0002B6823432B6007F20C051FFA8AF35C00AD
:1003D000A4B24FF00303A340DC432B6823402B60FF
:1003E00007F20C054FEA4A0300FA03F42B68234393
:1003F0002B6008F0080333B308F470031B0D8DF86D
:100400000C30BAF1070F05D907F224030293AAF1C1
:10041000080503E007F2200302935546AC004FF0B5
:100420000F03A340DC43029B1B6803EA0404029B06
:100430001C609DF80C40AB009C40029B1B6843EA8B
:100440000404029B1C600AF1010A74E7DDF800E075
:1004500004B0704700FCFFFF0000FFFF140008001D
:10046000FFFF00000008080081B00248006801B0EA
:10047000704700BF8000002083B0CDF800E0044644
:1004800004F0FF031A09104603F00F029446220AF3
:1004900002F00F0293461AE02C4A029229E02C4AFD
:1004A000029226E02B4A029223E02B4A029220E09D
:1004B0002A4A02921DE02A4A02921AE0294A02922E
:1004C00017E0294A029214E0284A029211E000281B
:1004D000E2D00128E3D00228E4D00328E5D00428A4
:1004E000E6D00528E7D00628E8D00728E9D0082874
:1004F000EAD0012202FA0CF2ADF8042002980A4672
:10050000BDF80410FFF794FE029A02F22001BCF13C
:10051000070F08D90A1D1046ACF1080211460191D7
:100520000146019800E0604683004FF00F029A40B8
:10053000D3430A681A400A6082000BFA02F30A6881
:100540001A430A60DDF800E003B070470000024083
:100550000004024000080240000C0240001002406B
:100560000014024000180240001C0240002002401B
:1005700081B040F20107C0F200077F1EFDD100BF2D
:1005800000BF00BF00BF01B07047FFFF82B0CDF8D1
:1005900000E00346191D0191FFF766FF40F2E831C4
:1005A00000FB01F201990A601749096801F0F001A6
:1005B0000A09164989180878C0B2191D09688140CE
:1005C00019601149096801F4E0518A0A0F49891834
:1005D0000878C0B203F20802191D0968C140116011
:1005E0000949096801F460414A0B084989180978EA
:1005F000C8B203F20C02191D0968C1401160DDF890
:1006000000E002B0704700BF083802400000002040
:1006100083B0CDF800E00024A10041180968B1F1D1
:10062000FF3F14D000F23401A300C91809680A463C
:10063000C11809680190ADF8084008461146FFF757
:100640001BFFBDF808400198641CA4B2E4E7DDF884
:1006500000E003B07047FFFF8BB0CDF800E09AB226
:10066000BDF82C300C9E06ACADF80430ADF8082077
:10067000039104902046FFF789FF04980399BDF881
:100680000820BDF80430714CA04212D101256DB292
:100690006F4C25606F4D704C2560704D704C25601F
:1006A000704D714C2560714D714C2560099C05940D
:1006B0006CE0704CA04212D101256DB26E4C2560E9
:1006C0006E4D654C25606E4D654C25606D4D664CDC
:1006D00025606D4D664C2560089C059456E06B4C7A
:1006E000A04212D101256DB2694C2560694D5A4C6A
:1006F0002560694D5A4C2560684D5B4C2560684DFE
:100700005B4C2560089C059440E0664CA04212D1E9
:1007100001256DB2644C2560644D4F4C2560644DDD
:100720004F4C2560634D504C2560634D504C256007
:10073000089C05942AE0614CA04212D101256DB2BB
:100740005F4C25605F4D444C25605F4D444C2560F7
:100750005E4D454C25605E4D454C2560089C0594DA
:1007600014E05C4CA04211D101256DB25A4C2560B9
:100770005A4D394C25605A4D394C2560594D3A4CEB
:100780002560594D3A4C2560099C0594ADF804301C
:10079000ADF80820039104903046FFF739FF049824
:1007A0000399BDF80820BDF8043000F210050024BC
:1007B0002C6000F210052C681C432C6000F20C0524
:1007C00000242C601AB142F4806292B2FFE700F27A
:1007D0000C052C6814432C6000F20C0601253468CB
:1007E00065F34D34346000F20C060125346865F37E
:1007F000C304346000F20C060125346865F38204FA
:10080000346000F2140500242C60059D1924654312
:100810008C00B5FBF4F76424B7FBF4F4260135092A
:1008200064246C433C1B240104F232056424B5FBB0
:10083000F4F404F00F0446EA040400F20805A4B23C
:100840002C60DDF800E00BB0704700BF00100140E5
:1008500090084742FFFFFFFF88000020FFFFFFFFD7
:100860008C000020FFFFFFFF90000020FFFFFFFF34
:10087000940000200044004044084742FFFFFFFF6F
:10088000FFFFFFFFFFFFFFFFFFFFFFFF00480040EC
:1008900048084742FFFFFFFFFFFFFFFFFFFFFFFF8B
:1008A000FFFFFFFF004C00404C084742FFFFFFFFE7
:1008B000FFFFFFFFFFFFFFFFFFFFFFFF00500040B4
:1008C00050084742FFFFFFFFFFFFFFFFFFFFFFFF53
:1008D000FFFFFFFF0014014094084742FFFFFFFFA6
:1008E000FFFFFFFFFFFFFFFFFFFFFFFF86B0CDF819
:1008F00000E0044601A90846FFF748FE049A39497A
:100900008A4206D9012252B237490A6037490A6041
:100910001FE0049A36498A4208D9002252B232496D
:100920000A60012252B231490A6012E0049A314948
:100930008A4208D9012252B22B490A60002252B2DF
:100940002A490A6005E0002252B227490A60274975
:100950000A60231D1A68284902EA0101196004F29D
:1009600008031A68254902EA01011960231D0022C3
:10097000196862F30821196004F20803002219685B
:1009800062F34101196004F208030022196862F35E
:10099000CB21196004F22C030022196862F3145170
:1009A000196004F22C030022196862F35551196092
:1009B00004F22C030022196862F39651196004F2C4
:1009C0002C030022196862F3D751196004F208035E
:1009D0000122196862F300011960DDF800E006B039
:1009E000704700BF0095BA0AC0602442C460244228
:1009F000000E270700879303FFFEF0FFFDF7F1FFCE
:100A000081B0CDF800E04FF0010289B2FFF710FC91
:100A1000DDF800E001B0704781B0CDF800E000F2F1
:100A200034040A0992B293B2226863F3041222607A
:100A300000F23404CA0892B293B2226863F3C3028C
:100A4000226000F234048A0892B293B2226863F3FF
:100A50008202226000F234044A0892B293B2226801
:100A600063F34102226000F234048BB2226863F324
:100A70000002226000F208040123226863F39E72E0
:100A80002260FFF775FD0368C3F3400202B9FAE77D
:100A900000F24C02126890B2DDF800E001B070473D
:100AA00081B000210D4801600D48006800B1FBE7EE
:100AB000002149B20B4801600B49084801600B490D
:100AC0000B4801600B490C48016020210B48016074
:100AD000012149B20A48016001B0704758600240E4
:100AE000000B4C42880D4C42500400080448004062
:100AF0006060024098000020646002405C60024038
:100B00006C014C4281B0CDF800E0FFF7C9FF012134
:100B100049B203480160DDF800E001B0704700BF52
:100B2000000B4C4281B0CDF800E01FFA80FBCBF304
:100B3000000121B140F201013F48FFF761FFCBF313
:100B4000400121B140F202013B48FFF759FFCBF3CE
:100B5000800121B140F204013748FFF751FFCBF388
:100B6000C00121B140F208013348FFF749FFCBF340
:100B7000001121B140F210012F48FFF741FFCBF3E4
:100B8000401121B140F220012B48FFF739FFCBF390
:100B9000801121B140F240012748FFF731FFCBF32C
:100BA000C01121B140F280012348FFF729FFCBF3A8
:100BB000002121B140F201012048FFF721FFCBF3D2
:100BC000402121B140F202011C48FFF719FFCBF38D
:100BD000802121B140F201011948FFF711FFCBF349
:100BE000C02121B140F202011548FFF709FFCBF304
:100BF000003121B140F204011148FFF701FFCBF3AE
:100C0000403121B140F208010D48FFF7F9FECBF366
:100C1000803121B140F210010948FFF7F1FECBF31A
:100C2000C03121B140F220010548FFF7E9FEDDF8AF
:100C300000E001B0704700BF000002400004024025
:100C40000008024081B0CDF800E04FF0420289B2C6
:100C5000FFF7EEFADDF800E001B0704781B0CDF8A3
:100C600000E0044A89B2FFF7E3FADDF800E001B0E2
:100C7000704700BF1400080081B000210D480160DA
:100C80000D48006800B1FBE7002149B20B48016044
:100C90000B49084801600B490B4801600B490C489F
:100CA00001600C210B480160012149B20A48016032
:100CB00001B070472860024000054C4288074C4252
:100CC0001005030804480040306002407000002016
:100CD000346002402C6002402C014C4281B0CDF8BF
:100CE00000E0019D2C4610B408B493B28AB20146CC
:100CF0000348FFF7B1FC02B0DDF800E001B0704737
:100D00000048004081B0CDF800E081B20348FFF711
:100D100083FEDDF800E001B0704700BF0020014015
:100D200081B0CDF800E0074907480160012149B2D0
:100D3000064801600648FFF7D9FDDDF800E001B084
:100D4000704700BF050D00007C000020A00847424E
:100D50000020014081B0012149B20248016001B088
:100D6000704700BF00054C4281B0042806D11949E4
:100D7000096841F4803217490A6028E0052806D145
:100D80001449096841F4003212490A601FE006283C
:100D900006D11049096841F480220E490A6016E024
:100DA0000F2806D10C49096841F002020A490A607D
:100DB0000DE010280BD3A0F2100461098A00074946
:100DC0008B1804F01F024FF001019140196001B02F
:100DD000704700BF24ED00E010E000E000E100E01B
:100DE00081B0CDF800E00C20FFF78CFFDDF800E0CB
:100DF00001B0704781B0CDF800E00D20FFF782FF11
:100E0000DDF800E001B0704781B0CDF800E00A20C5
:100E1000FFF778FFDDF800E001B0704781B0CDF852
:100E200000E00B20FFF76EFFDDF800E001B0704737
:100E300081B0CDF800E0FFF765FEDDF800E001B01D
:100E40007047FFFF81B0CDF800E040F24600FFF7A9
:100E50008BFF012149B20448016004480160DDF8BC
:100E600000E001B0704700BF800102420000024272
:100E700081B0CDF800E00E20FFF744FFDDF800E080
:100E800001B0704781B0CDF800E00F20FFF73AFFC6
:100E9000DDF800E001B0704781B0012149B2094896
:100EA0000160002252B208480260084802609F2197
:100EB0000748016041F28831064801600648026037
:100EC00001B0704710084742000002420000024291
:100ED000281000402C1000400002024281B001B0F6
:100EE0007047FFFF81B0012149B20948016000222B
:100EF00052B208480260084802609F21074801601A
:100F000040F2F411064801600648026001B07047E3
:100F10001408474200800242008002422814004028
:100F20002C1400400082024281B0CDF800E04CF267
:100F300000010A48FFF786FE40F2F3010848FFF778
:100F400081FE4FF600710648FFF788FE0021054834
:100F50000160DDF800E001B0704700BF000802400A
:100F6000000C0240140C024081B0CDF800E00121D9
:100F700049B21248016041F2A917C0F2040700BF4C
:100F800000BF7F1EFDD100BF00BFFFF775FE0C48FC
:100F900001B440F2000340F2000240F2000142F2CC
:100FA0008050FFF79BFE01B0012149B20548016066
:100FB00005480160DDF800E001B070475406474283
:100FC00030200000980209429C02094281B0CDF80D
:100FD00000E04FF60040FFF7A5FDFFF7A1FEDDF8AA
:100FE00000E001B07047FFFF81B00249086001B026
:100FF000704700BFB082414281B00249086001B031
:10100000704700BFB482414281B020B9012252B280
:1010100004490A6003E0012252B203490A6001B0A8
:10102000704700BF788341423883414281B0024912
:10103000086001B0704700BFAC82414281B00249F4
:10104000086001B0704700BFA082414281B0C0F388
:10105000000210490A60C0F340020F490A60C0F361
:1010600080020E490A60C0F3C0020D490A60C0F355
:1010700000120C490A60C0F340120B490A60C0F329
:1010800080120A490A60C0F3C01209490A6001B01F
:10109000704700BFA0824142A4824142A8824142DF
:1010A000AC824142B0824142B4824142B882414264
:1010B000BC82414281B00249086001B0704700BF64
:1010C000A882414281B00249086001B0704700BF68
:1010D000A482414281B0EFF3108C604672B601B039
:1010E0007047FFFF81B040F6FF72914202D940F68F
:1010F000FF71FFE7421E12B293000A4AD21800EEB7
:10110000901AF8EE600A12ED000A60EE800A064AB4
:10111000D21812ED000A30EE800AB0EE400A01B09B
:10112000704700BF580000204000002081B0CDF87B
:1011300000E0FFF7D3FEDDF800E001B07047FFFFED
:1011400081B0CDF800E0FFF7A7FEFFF7CBFEDDF89A
:1011500000E001B07047FFFF81B0CDF800E040F241
:10116000000111E0FFF750FE1BE0FFF757FE18E00B
:10117000FFF736FE15E0FFF73DFE12E0FFF778FEC1
:101180000FE0FFF77FFE0CE00128EBD00228ECD047
:101190000328EDD00428EED00528EFD00628F0D0A3
:1011A00088B2DDF800E001B07047FFFF81B020B9E0
:1011B000012252B204490A6003E0012252B20349FB
:1011C0000A6001B0704700BF7C8341423C834142CA
:1011D00081B0CDF800E0FFF7C7FEDDF800E001B018
:1011E0007047FFFF81B0CDF800E044F24661064849
:1011F000018044F2301105480180FFF719FEDDF847
:1012000000E001B0704700BF980000209A00002065
:1012100081B0CDF800E0FFF787FEDDF800E001B017
:101220007047FFFF81B0CDF800E0FFF7CFFE4A48DE
:1012300000EE100A494800ED000A474800EE100A87
:10124000474800ED000A444800EE100A454800ED0A
:10125000000A454800EE100A444800ED000A3E48E6
:1012600000EE100A424800ED000A3B4800EE100A6A
:10127000404800ED000A384800EE100A3E4800EDF4
:10128000000A354800EE100A3C4800ED000A3248DA
:1012900000EE100A3A4800ED000A334800EE100A4A
:1012A000384800ED000A2C4800EE100A364800EDE0
:1012B000000A294800EE100A344800ED000AB7EE93
:1012C000000A334800ED000AB7EE000A314800ED8D
:1012D000000AB7EE000A304800ED000AB7EE000A37
:1012E0002E4800ED000AB7EE000A2D4800ED000A76
:1012F000B7EE000A2B4800ED000A4FF0000000EEA8
:10130000100A294800ED000A4FF0000000EE100A14
:10131000264800ED000A4FF0000000EE100A2448B5
:1013200000ED000A4FF0000000EE100A214800ED29
:10133000000A4FF0000000EE100A1F4800ED000AFE
:101340004FF0000000EE100A1C4800ED000ADDF826
:1013500000E001B0704700BF0000C842100000204C
:101360001400002018000020000096431C000020FC
:101370002000002024000020280000202C00002055
:101380003000002034000020380000203C00002005
:10139000580000205C000020600000206400002055
:1013A000680000206C000020400000204400002065
:1013B000480000204C000020500000205400002075
:1013C00081B0CDF800E040F21C00FFF7CDFCDDF865
:1013D00000E001B07047FFFF81B0CDF800E0FFF7FB
:1013E00031FDDDF800E001B07047FFFF81B0CDF8BE
:1013F00000E040F24700FFF7B7FC012149B2044882
:10140000016004480160DDF800E001B0704700BFF2
:10141000808102420080024281B0EFF3108C60466E
:1014200062B601B07047FFFF81B0CDF800E0FFF772
:1014300091FCDDF800E001B07047FFFF81B001B022
:101440007047FFFF81B001B07047FFFF81B001B06E
:101450007047FFFF81B0002149B20248016001B02E
:10146000704700BF0002024281B0CDF800E00120C9
:10147000FFF772FE81B20120FFF734FE1D4800ED38
:10148000000A0220FFF768FE81B20220FFF72AFE61
:10149000194800ED000A0320FFF75EFE81B2032029
:1014A000FFF720FE154800ED000A0420FFF754FE68
:1014B00081B20420FFF716FE114800ED000A052056
:1014C000FFF74AFE81B20520FFF70CFE0D4800ED44
:1014D000000A0620FFF740FE81B20620FFF702FE59
:1014E000094800ED000AFFF77DFEDDF800E001B0DD
:1014F000704700BF9C000020A0000020A400002036
:10150000A8000020AC000020B000002081B0CDF881
:1015100000E0FFF76BFFDDF800E001B07047FFFF70
:1015200081B0CDF800E0FFF74BFFDDF800E001B03F
:101530007047FFFF81B0CDF800E0FFF7CBFDFFF76C
:10154000F5FDFFF7FDFDFFF743FEFFF761FEFFF737
:1015500069FEDDF800E001B07047FFFF81B00021B7
:1015600049B20248016001B0704700BF00820242E8
:1015700081B0CDF800E0FFF74FFFFFF755FFFFF711
:10158000C5FFFFF729FFDDF800E001B07047FFFF5E
:1015900081B0CDF800E023E0C8B2FFF757FD31E09D
:1015A000C8B2FFF74BFD2DE0C8B2FFF78BFD29E075
:1015B000C8B2FFF77FFD25E0C8B2FFF737FD21E095
:1015C000C8B2FFF711FD1DE0C8B2FFF715FD19E025
:1015D000C8B2FFF719FD15E0C8B2FFF7E7FD11E04B
:1015E0000028D9D00128DBD00228DDD00328DFD0A5
:1015F0000428E1D00528E3D00628E5D00728E7D065
:101600000828E9D0DDF800E001B0704781B0012181
:1016100049B20248016001B0704700BF2C014C4242
:1016200081B001B07047FFFF81B01CF8019B0BF83F
:10163000019BBBEB0A0FF8D101B0704781B0CDF828
:1016400000E0FFF78BFFDDF800E001B07047FFFF1F
:1016500081B0CDF800E0FFF707FFDDF800E001B052
:101660007047FFFF81B0CDF800E0002020B90121D4
:101670000720FFF78DFF03E000210720FFF788FF19
:1016800014E2C148018844F24C6081420ED101202D
:10169000FFF762FD00EE100AB8EE400ABB4800ED0D
:1016A000000AB1EE400ABA4800ED000AB6480188C7
:1016B00044F2486081422BD10120FFF74DFD40F6F6
:1016C000FF71884202D940F6FF7004E00120FFF765
:1016D00043FD81B288B200EE100AB8EE400AAB4A70
:1016E00002ED000AAB4911ED000AAB4800ED000A1B
:1016F000A74850ED000A084610ED000A70EE600A97
:10170000104610ED000A80EE800AA44800ED000AA1
:10171000F6E19D48018844F24C6081421AD10220D2
:10172000FFF71AFD40F6FF71884202D940F6FF70BC
:1017300004E00220FFF710FD81B288B200EE100A2B
:10174000B8EE400A964800ED000AB1EE400A95480E
:1017500000ED000A8C48018844F2486081422BD198
:101760000220FFF7F9FC40F6FF71884202D940F6EB
:10177000FF7004E00220FFF7EFFC81B288B200EEB8
:10178000100AB8EE400A864A02ED000A814911EDBE
:10179000000A854800ED000A824850ED000A08461C
:1017A00010ED000A70EE600A104610ED000A80EE9F
:1017B000800A7E4800ED000AA2E17348018844F2E5
:1017C0004C6081421AD10320FFF7C6FC40F6FF713E
:1017D000884202D940F6FF7004E00320FFF7BCFC0A
:1017E00081B288B200EE100AB8EE400A704800EDEF
:1017F000000AB1EE400A6F4800ED000A6248018815
:1018000044F2486081422BD10320FFF7A5FC40F64B
:10181000FF71884202D940F6FF7004E00320FFF711
:101820009BFC81B288B200EE100AB8EE400A604A12
:1018300002ED000A574911ED000A5F4800ED000A69
:101840005C4850ED000A084610ED000A70EE600A90
:10185000104610ED000A80EE800A584800ED000A9C
:101860004EE14948018844F24C6081421AD104207B
:10187000FFF772FC40F6FF71884202D940F6FF7014
:1018800004E00420FFF768FC81B288B200EE100A81
:10189000B8EE400A4A4800ED000AB1EE400A494855
:1018A00000ED000A3848018844F2486081422BD19B
:1018B0000420FFF751FC40F6FF71884202D940F640
:1018C000FF7004E00420FFF747FC81B288B200EE0D
:1018D000100AB8EE400A3A4A02ED000A2D4911ED0D
:1018E000000A394800ED000A364850ED000A084663
:1018F00010ED000A70EE600A104610ED000A80EE4E
:10190000800A324800ED000AFAE01F48018844F2DC
:101910004C6081421AD10520FFF71EFC40F6FF7192
:10192000884202D940F6FF7004E00520FFF714FC5E
:1019300081B288B200EE100AB8EE400A244800EDE9
:10194000000AB1EE400A234800ED000A0E48018863
:1019500044F24860814254D10520FFF7FDFB40F678
:10196000FF71884202D940F6FF7004E00520FFF7BE
:10197000F3FB81B288B200EE100AB8EE400A144AB6
:1019800002ED000A034927E0700000202800002033
:1019900040000020740000201000002058000020AB
:1019A0002C00002044000020140000205C000020D7
:1019B00030000020480000201800002060000020B7
:1019C000340000204C0000201C0000206400002097
:1019D000380000205000002011ED000A4A4800EDB8
:1019E000000A4A4850ED000A084610ED000A70EE61
:1019F000600A104610ED000A80EE800A444800EDAF
:101A0000000A7DE04348018844F24C6081421AD1CB
:101A10000620FFF7A1FB40F6FF71884202D940F68D
:101A2000FF7004E00620FFF797FB81B288B200EE5A
:101A3000100AB8EE400A384800ED000AB1EE400A3C
:101A4000364800ED000A3348018844F2486081427C
:101A50002BD10620FFF780FB40F6FF71884202D9A8
:101A600040F6FF7004E00620FFF776FB81B288B2F3
:101A700000EE100AB8EE400A274A02ED000A284993
:101A800011ED000A274800ED000A244850ED000A35
:101A9000084610ED000A70EE600A104610ED000ACC
:101AA00080EE800A204800ED000A29E01F480188E6
:101AB00044F2311081423FF4E4AD1C48018844F205
:101AC000321081423FF425AE1848018844F23310A9
:101AD00081423FF472AE1548018844F234108142CD
:101AE0003FF4BFAE1148018844F2351081423FF403
:101AF0000CAF0E48018844F2361081423FF482AFA9
:101B0000DDF800E001B07047200000205000002008
:101B100068000020700000203C00002054000020DD
:101B200074000020240000206C00002072000020BF
:101B300081B0CDF800E0FFF78DFCDDF800E001B0EA
:101B40007047FFFF81B04FF000094FF0000CBDEB74
:101B50000A0F04DCBDEB0B0F01DBD446EA464BF861
:101B6000049BBBEB0A0FFAD1BCEB0A0F05DDE24682
:101B7000D9F800B00BF1040BF1E701B07047FFFF9B
:101B800081B00D48006840F001010B480160002160
:101B90000A48016008480168094801400648016098
:101BA000084909480160044801686FF48020014039
:101BB0000148016001B07047003802400838024017
:101BC000FFFFF6FE103000240438024081B0CDF84B
:101BD00000E0FFF7AFFCFFF799FCFFF7A1FCFFF770
:101BE00035FCFFF72BFCFFF72DFCFFF7C1FCDDF800
:101BF00000E001B07047FFFF81B0CDF800E0FFF7D3
:101C000005FDDDF800E001B07047FFFF81B000F096
:101C100031F800F0F7F900F089FA00F019F800F057
:101C200045FAFFF7D3FFFFF7FBFCFEE790B481B066
:101C3000CDF800E0FFF7E0FFFFF714FDDDF800E06E
:101C400001B090BC7047FFFF81B0FEE701B0704764
:101C500081B004490448016004490548016001B0AD
:101C6000704700BF401F00008000002003000000FC
:101C70008400002082B0CDF800E0924A924B934C51
:101C800093489449032840F03C809348814206D908
:101C90009248006840F005019048016030E09048AB
:101CA000814206D98D48006840F004018B480160EC
:101CB00026E08C48814206D98848006840F003013C
:101CC000864801601CE04EF66020814206D98348B8
:101CD000006840F002018148016011E047F2305095
:101CE000814206D97D48006840F001017B480160CF
:101CF00006E07A4801686FF007000140774801600C
:101D00000CE1022840F046807748814206D97348AA
:101D1000006840F00601714801603AE07048814275
:101D200006D96E48006840F005016C48016030E05B
:101D30006E48814206D96948006840F0040167484E
:101D4000016026E06A48814206D96448006840F094
:101D50000301624801601CE04BF68030814206D9E5
:101D60005E48006840F002015C48016011E045F601
:101D7000C050814206D95948006840F001015748D7
:101D8000016006E0554801686FF0070001405348C4
:101D90000160C3E0012840F051805148814206D9DA
:101DA0004E48006840F007014C48016045E051484A
:101DB000814206D94948006840F006014748016061
:101DC0003BE04848814206D94448006840F005019C
:101DD0004248016031E04648814206D93F480068E8
:101DE00040F004013D48016027E04DF2F0208142BF
:101DF00006D93A48006840F00301384801601CE009
:101E000048F6A040814206D93448006840F00201FB
:101E10003248016011E044F25060814206D92F48F7
:101E2000006840F001012D48016006E02B48016880
:101E30006FF007000140294801606FE0002840F082
:101E40006D802D48814206D92448006840F0070182
:101E50002248016062E02548814206D91F48006897
:101E600040F006011D48016058E02448814206D92F
:101E70001A48006840F00501184801604EE0B1F5CD
:101E80007A4F06D91548006840F0040113480160F4
:101E900044E04BF68030814206D91048006840F09B
:101EA00003010E48016039E0B1F5FA4F06D90B483D
:101EB000006840F00201094801602FE0B1F57A5F47
:101EC00025D91DE080000100100000040100000081
:101ED00003000000401F0000F0490200003C0240E7
:101EE000C0D40100905F0100803202000077010041
:101EF00040190100E0A5010080B501008038010013
:101F00002D48006840F001012B48016006E02A4896
:101F100001686FF00700014027480160012149B2C4
:101F20002648016026480160FFF72AFE2548036025
:101F300025480460254802EA00012548016002F0B6
:101F4000010040B121462248006800F0020000284C
:101F500000D1F8E700E0214602F4803048B11C4887
:101F6000006800F4003000B9F9E701920A460199CF
:101F700002E001911146019A01F0807070B114489D
:101F8000006840F0807112480160114610480068F6
:101F900000F0007000B9F9E70A46FFE70A48006858
:101FA00000F00C01900000F00C00814200D0F5E739
:101FB000DDF800E002B07047003C0240208047425C
:101FC000248047420438024008380240FFFF0F00D7
:101FD0000038024090B481B0CDF800E0FFF7A8FDD2
:101FE000FFF736FBDDF800E001B090BC7047FFFF63
:101FF00081B0CDF800E0FFF721FBDDF800E001B093
:102000007047FFFF81B04EF68850CEF200000168A5
:1020100041F47001016000BF00BF00BF00BFF1EEDE
:10202000100A40F44000E1EE100A01B07047FFFFD3
:102030001A0700001B070000FFFFFFFF0000000061
:102040000000000000000000000000000000000090
:102050000000000000000000000000000000000080
:102060000000000018080000180800000000000030
:102070000000000000000000000000000000000060
:102080000000000000000000000000000000000050
:102090000000000000000000000000000000000040
:1020A00001020304010203040607080900B5DFF872
:1020B00014B0DFF814A0DFF814C0FFF7B5FA00BDC4
:1020C000704700BF00000020100000209C2000008E
:1020D000FFFFFFFFFFFFFFFFFFFFFFFFFFFFFFFF10
:1020E000FFFFFFFFFFFFFFFFFFFFFFFFFFFFFFFF00
:1020F000FFFFFFFFFFFFFFFFFFFFFFFFFFFFFFFFF0
:10210000FFFFFFFFFFFFFFFFFFFFFFFFFFFFFFFFDF
:10211000FFFFFFFFFFFFFFFFFFFFFFFFFFFFFFFFCF
:10212000FFFFFFFFFFFFFFFFFFFFFFFF00B5DFF82F
:1021300010B0DFF810A0FFF705FD00BD704700BF2D
:1021400000000020B8000020FFFFFFFFFFFFFFFF9F
:00000001FF
