:020000040800F2
:1000000028050020A10100085317000889150008E1
:1000100051170008DD060008311D0008000000002F
:10002000000000000000000000000000571700085A
:10003000DF060008000000005517000859170008E7
:10004000BB010008BB010008BB010008BB010008A0
:10005000BB010008BB010008E1060008BB01000865
:10006000BB010008BB010008BB010008BB01000880
:10007000BB010008BB010008BB010008BB01000870
:10008000BB010008BB010008BB010008BB01000860
:10009000BB010008BB010008BB010008BB01000850
:1000A000BB010008BB010008BB010008BB01000840
:1000B000BB010008BB010008BB010008BB01000830
:1000C000BB010008BB010008BB010008BB01000820
:1000D000BB010008BB010008BB010008BB01000810
:1000E000BB010008BB010008BB010008BB01000800
:1000F000BB010008BB010008BB010008BB010008F0
:10010000BB010008BB010008BB010008BB010008DF
:10011000BB010008BB010008BB010008BB010008CF
:10012000BB010008BB010008BB010008BB010008BF
:10013000BB010008BB010008BB010008BB010008AF
:10014000BB010008BB010008BB010008BB0100089F
:10015000BB010008BB010008BB010008BB0100088F
:10016000BB010008BB010008BB010008BB0100087F
:10017000BB010008BB010008BB0100080000000033
:10018000BB010008BB010008DFF810D000F094FAB2
:1001900000480047711D0008AFF3008028050020CB
:1001A0000648804706480047FEE7FEE7FEE7FEE711
:1001B000FEE7FEE7FEE7FEE7FEE7FEE7ED170008D5
:1001C000890100082DE9F05F0546002092469B4614
:1001D00088460646814640241BE02846414647465D
:1001E000224600F0E9F953465A46C01A914110D30D
:1001F00011461846224600F0D0F92D1A67EB010887
:100200004F4622460120002100F0C7F917EB0009F4
:100210004E41201EA4F10104DFDC484631462A4647
:100220004346BDE8F09FD2B201E000F8012B491E21
:10023000FBD270470022F6E710B513460A46044683
:100240001946FFF7F0FF204610BD2DE9FE4F80460E
:1002500081EA0300C00F0C46009021F0004123F01A
:100260000045B8EB0200A94105D240462146904620
:100270001C460B46024623F00040104347D0270D92
:10028000C7F30A00C3F30A510290401A01904028B4
:100290006BDAC3F3130040F4801B0098924620B140
:1002A0000023D2EB030A63EB0B0B01985946C0F114
:1002B0004002504600F071F906460D465046594638
:1002C000019A00F089F910EB08006141002487EAE7
:1002D000115284EAE7731A4340D0009A62B3019A3C
:1002E000012A4FEA075215DC001B61EB02014FF0B7
:1002F000004202EA0752CDE90042001C41F580119C
:1003000032462B4600F089F903B0BDE8F08F404635
:100310002146F9E7001B61EB0201001C41F5801347
:1003200000185B412018A2F5001747EB030140EAD3
:10033000D570B6196D4111E06D084FEA360645EAF1
:10034000C0754FEA0752001B61EB0201001C41F52A
:10035000801149084FEA30000019514132462B46BE
:1003600003B0BDE8F04F00F049B900980122400009
:100370000023D0EB020263EBE073009821464FEAC2
:10038000E074B8EB000061EB0401E9E783F000439F
:100390005BE781F0004158E72DE9FE4F81EA030455
:1003A00004F0004421F0004100944FF0000B23F0D2
:1003B000004350EA01045ED052EA03045BD0C3F369
:1003C0000A54C1F30A552C44A4F2F3340194A0FB5F
:1003D0000254C1F3130141F48011C3F3130343F436
:1003E000801301FB024400FB034E840A970A44EA8F
:1003F000815447EA8357A4FB076802958D0A05FBE1
:1004000007854FEA932C04FB0C542705029D4FEA05
:10041000065847EA1637B5EB08056EEB070C870E52
:10042000920E47EA811742EA8312A7FB0201B6EB5C
:100430000B0164EB00042B0D43EA0C335E1844EB14
:100440001C50DA465146E7FB0201C5F313044FEA9C
:100450000B3343EA14534FEA0432019C43EA060388
:10046000A4F10C040294009CCDE900B400F0D5F88E
:1004700003B0BDE8F08F00200146F9E72DE9F04D0B
:1004800081EA030404F0004B21F0004514464FF0CC
:10049000000A23F0004150EA050220D054EA01028C
:1004A0001DD0C5F30A570246C5F31303C1F3130069
:1004B000C1F30A5640F4801543F48013A7EB0608F5
:1004C000101BD64608F2FD3873EB050002D308F185
:1004D000010801E092185B41B8F1000F03DA002037
:1004E0000146BDE8F08D00204FF480110646844699
:1004F0000EE0171B73EB050705D3121B63EB050317
:1005000006434CEA010C49084FEA300092185B415F
:1005100050EA0107EDD152EA030012D082EA04004A
:1005200083EA0501084305D0101BAB4106D2012226
:10053000002306E000224FF0004302E06FF00102CA
:1005400053101AEB06004CEB085110EB0A0041EB7C
:100550000B01BDE8F04D00F051B80EB540F233414B
:1005600002910021CDE900110A460B4600F055F832
:1005700003B000BD00F0004230F000400AD0C10DD1
:1005800001F56071C0F3160042EA0151C20840074C
:1005900011437047002001467047202A04DB203AAF
:1005A00000FA02F1002070479140C2F1200320FAC6
:1005B00003F3194390407047202A04DB203A21FAC4
:1005C00002F00021704721FA02F3D040C2F120026C
:1005D0009140084319467047202A06DBCB17203A82
:1005E00041FA02F043EAE07306E041FA02F3D04038
:1005F000C2F12002914008431946704710B5141EFD
:1006000073F1000408DA401C41F1000192185B41CB
:100610001A4301D120F0010010BD2DE9F04D9246A2
:100620009B4611B1B1FA81F202E0B0FA80F22032B9
:100630009046FFF7B2FF04460F4640EA0A0041EA3F
:100640000B0153465A46084313D0114653EA0100A2
:1006500019D0C8F140025046FFF7AEFF05460E46DE
:10066000504659464246FFF798FF084305D00120FF
:1006700004E020463946BDE8F08D0020054346EAF7
:10068000E0762C4337430A986305E40AA0EB0800A0
:100690000022FD0A44EA47540A3002D500200146F0
:1006A000E9E7010510196941DDE9084500196941CB
:1006B000BDE8F04DA2E70000064C074D06E0E068FB
:1006C00040F0010394E8070098471034AC42F6D399
:1006D000FFF75EFDC01E0008E01E0008FEE7704741
:1006E000012000F02FB872B6FEE7000070B5044696
:1006F00000F010F90546601C02D00448007804445C
:1007000000F008F9401BA042FAD370BD5800002049
:1007100070B50B4C204625684068AE07FFF71DFFFB
:10072000002E02DAC4E9120101E0C4E914016D1CD3
:100730002560BDE870404FF49670FFF7D7BF00000A
:1007400000000020044910B50A68024202D0086087
:10075000FFF7DEFF10BD0000143C01402DE9F84F0B
:1007600000224FF0010803254FF00F0E0B6808FA26
:1007700002F42340A3426ED14E68012E05D0022E12
:1007800003D0112E01D0122E12D186684FEA420CEE
:1007900005FA0CF7BE43CF6807FA0CF737438760BA
:1007A0004668A6430C79C4F3001494403443446073
:1007B000C668570005FA07FC8C6826EA0C06BC40A0
:1007C0003443C4604C68022C01D0122C13D1D408DD
:1007D00000EB8404A346D4F8209054074FEAD46A6F
:1007E0000EFA0AF629EA06090E6906FA0AF646EA38
:1007F0000906CBF8206006680C7926EA0C0604F09E
:100800000304BC40344304604C68E40065D5364CB6
:10081000266846F480462660246822F0030604F425
:1008200080440094314C3444A446D4F808489607D8
:10083000370F0EFA07F6B4432D4EB04201D1002611
:1008400024E02C4EB04201D101261FE02A4EB042D6
:1008500002D102261AE040E0284EB04201D1032620
:1008600014E0274EB04201D104260FE0254EB042DD
:1008700001D105260AE0244EB04201D1062605E04A
:10088000224EB04201D1072600E00826BE40264392
:10089000CCF808681E4E34684F689C43FF0300D5AF
:1008A0001C4334601A4C241D26684F689E43BF03C6
:1008B00000D51E432660164E083634684F689C43A8
:1008C000FF0200D51C433460114E0C3634684F686B
:1008D0009C43BF0200D51C433460521C102AFFF415
:1008E00045AFBDE8F88F00004438024000300140B9
:1008F000000002400004024000080240000C0240D8
:10090000001002400014024000180240001C024087
:10091000003C0140014880687047000058000020FA
:1009200002488168027811448160704758000020B5
:100930000B4810B5016841F400710160016841F491
:1009400080610160016841F480710160032000F062
:100950006FF8002000F006F800F024F8002010BD29
:10096000003C024070B50D4D04464FF47A71287872
:10097000B1FBF0F00A490968B1FBF0F000F004FBAC
:1009800048B9102C07D200222146501E00F030F842
:1009900000206C6070BD012070BD00005800002078
:1009A000640000200A4808B5016841F480410160F4
:1009B000006800F4804000900548001F016841F085
:1009C00080510160006800F08050009008BD000078
:1009D00044380240002809DB00F01F020121914049
:1009E0004009800000F1E020C0F8001170470000CD
:1009F000F0B40E4B1B680C46C3F30223C3F107058A
:100A0000042D00D90425191D072901D2002300E077
:100A1000DB1E012606FA05F1491E214099409E4041
:100A2000761E16403143F0BC01F083B90CED00E0B6
:100A3000064900F0070208684FF6FF03184040EA35
:100A40000220034A10430860704700000CED00E0EC
:100A50000000FA052DE9F0470E46050065D0DFF8E5
:100A60001481D8F80000F7B200F00F00B04207D2AE
:100A700088F80070D8F8000000F00F00B04254D1A0
:100A800028683D4C810712D5400703D5206840F403
:100A9000E05020602878000703D5206840F46040CB
:100AA00020602068A96820F0F000084320602878C2
:100AB000C0072DD0304968680839012812D00228B3
:100AC00013D0032811D00968890700292DDA21687D
:100AD00021F0030101432160FFF71CFF814641F231
:100AE000883A0EE009688903EFE709688901ECE7B5
:100AF000FFF710FFA0EB0901514502D90320BDE823
:100B0000F0872068696800F00C00B0EB810FEFD12E
:100B1000D8F80010404601F00F01B14207D9077024
:100B2000006800F00F00B04201D00120E7E728780C
:100B3000400705D52068E96820F4E05008432060AC
:100B40002878000706D52068296920F4604040EA2B
:100B5000C100206000F038F82168084AC1F3031191
:100B6000515CC8400649086006480068FFF7FAFE75
:100B70000020C4E7003C024008380240A81E0008DC
:100B8000640000205C0000200448054900680968F2
:100B9000044AC1F38221515CC840704764000020C0
:100BA00008380240B81E0008044805490068096872
:100BB000044AC1F34231515CC840704764000020D0
:100BC00008380240B81E0008154810B5006810F03B
:100BD0000C02144813D01449042A0FD0082A0ED14D
:100BE0000F4C241F2268236802F03F025B0207D5E6
:100BF0002068C0F38810A0FB010106E0084610BD84
:100C00002168C1F38811A1FB00010023FFF7DAFA84
:100C10002168C1F30141491C4900B0FBF1F010BD4E
:100C2000083802400024F40040787D012DE9F84F97
:100C300004006ED02078DFF83C93C007A9F10405CA
:100C40004AD009F104000168C1F38101012908D0EB
:100C50000068C0F3810002280AD1D9F800004002E0
:100C600006D52868800337D560680028E1D033E0D6
:100C70006068B0F5803F10D0B0F5A02F286810D084
:100C800020F480302860286820F480202860606884
:100C9000A8B1FFF73FFE06460DE0286840F480301B
:100CA000F4E740F480202860F7E700BFFFF732FE4A
:100CB000801B642873D828688003F7D50CE0FFF701
:100CC00029FE064605E000BFFFF724FE801B6428CE
:100CD000F0D828688003F7D42078DFF89C8280075A
:100CE0004FF0000A3ED5A348001D016811F00C0F1B
:100CF00008D00068C0F3810002280BD1D9F80000A9
:100D0000400207D42868800716D5E068012800D182
:100D100012E02BE1E068B8B10120C8F80000FFF74D
:100D2000F9FD064605E000BFFFF7F4FD801B022831
:100D3000C0D828688007F7D52868216920F0F80016
:100D400040EAC10028600DE0C8F800A0FFF7E2FD0E
:100D5000064604E0FFF7DEFD801B02281FD8286846
:100D60008007F7D42078000722D5824E8348616936
:100D7000703671B101210160FFF7CCFD074604E038
:100D8000FFF7C8FDC01B022809D830688007F7D5D7
:100D90000EE0C0F800A0FFF7BDFD074605E082E0C9
:100DA000FFF7B8FDC01B02287DD830688007F7D454
:100DB0002078400768D5DFF8BCB100270BF13C0B69
:100DC000DBF80000C0000BD4DBF8001041F08051CC
:100DD000CBF80010DBF80000012700F080500090F5
:100DE000674E3068C00510D4306840F480703060C1
:100DF000FFF790FD009005E0FFF78CFD0099401A89
:100E0000022850D83068C005F6D55A4EA0686C3616
:100E100001280FD00528306810D020F00100306084
:100E2000306820F004003060A068B8B1FFF772FDB0
:100E300000900FE0306840F00100F4E740F004005B
:100E40003060F7E7FFF766FD0099411A41F28830FC
:100E5000814266D830688007F4D50EE0FFF75AFD6E
:100E6000009007E0FFF756FD0099411A41F28830E3
:100E7000814256D830688007F4D42FB1DBF80010D7
:100E800021F08051CBF80010A069C8B33949091D81
:100E90000968C1F3810102294AD00228504607D0CF
:100EA000C8F8600000E03CE0FFF734FD04463BE09A
:100EB0004746C8F86000FFF72DFD064605E000BF75
:100EC000FFF728FD801B02282BD828688001F7D463
:100ED000D4E907010843A16A2A4A490802EB014103
:100EE000626A41EA8211084394F82C1040EA0161D9
:100EF000C9F8001001203866FFF70CFD044606E033
:100F000036E000BFFFF706FD001B022809D828685D
:100F10008001F7D52CE000BFFFF7FCFC001B022886
:100F200002D90320BDE8F88F28688001F4D41FE0BF
:100F30000128F7D0D9F80000E26900F4800191425D
:100F400014D1226A00F03F0191420FD147F6C071DF
:100F5000626A0140914209D1A26A00F44031914293
:100F600004D1E16A00F07060884201D00120D9E725
:100F70000020D7E70438024000004742800E474275
:100F8000007000400000FFFF10B5401EB0F1807FF0
:100F900001D3012010BD4FF0E02460610F216017E4
:100FA00000F0C7FE0020A06107202061002010BDD6
:100FB00070B590F83C20012A32D0012480F83C40E2
:100FC000022280F83D2003685A689D6822F070066E
:100FD0000A6832435A60134B02689A4214D0B2F145
:100FE000804F11D0104B9A420ED0104B9A420BD02A
:100FF0000F4B9A4208D00F4B9A4205D00E4B9A42A3
:1010000002D00E4B9A4204D1496825F0800319435F
:10101000916080F83D40002180F83C10084670BD8A
:10102000022070BD000001400004004000080040A4
:10103000000C004000040140004001400018004046
:1010400010B5040003D094F83D0010B107E0012072
:1010500010BD002084F83C00204600F00DF802206E
:1010600084F83D00211D206800F0CEFB012084F8AB
:101070003D00002010BD000010B586B004461421CC
:101080006846FFF7D7F8194B2268002118489A42A2
:101090001FD1026842F002020260006800F0020004
:1010A000059013481438026842F004020260006898
:1010B00000F004000590C02000900220CDE901015D
:1010C0000320CDE9031069460A48FFF747FB06B045
:1010D00010BD09498A42FAD1016841F480210160BA
:1010E000006800F480200590F1E700000004014052
:1010F000443802400008024000480140022180F8C4
:101100003D1001688A6802F00702062A03D00A68C7
:1011100042F001020A60012180F83D100020704772
:101120002DE9F041044690F83C000D4601283DD0E1
:10113000012684F83C60022084F83D00AAB3042A0A
:1011400046D02068082A55D0D5E90027E968036A07
:1011500023F480530362D0F81CC0036A2CF4407C53
:101160004CEA07274FF6FF7C27F470470CEA013161
:1011700039434FF4204723F4204307EA02321A434D
:10118000C16102622068C16921F44061C1612068C7
:10119000C169AA6841EA0221C0F81C1084F83D60C8
:1011A000002084F83C00BDE8F08101E00220FAE76D
:1011B000D5E90012EB68206800F0B8FC206881696E
:1011C00021F00C01816120688169AA6811430FE058
:1011D000D5E90012EB68206800F0FAFC206881690C
:1011E00021F44061816120688169AA6841EA022195
:1011F0008161D3E7D5E9002C2F7B016A21F480714E
:101200000162C169036A21F0030141EA0C0121F086
:10121000F00C39074FF420674CEA116123F4206386
:1012200007EA02221A43C16102622068C16921F003
:101230000C01C1612068C169AA681143ACE710B50F
:10124000040003D094F83D0010B107E0012010BD68
:10125000002084F83C00204600F00CF8022084F8BE
:101260003D00211D206800F0CFFA012084F83D00E8
:10127000002010BD704710B504460068012200F040
:1012800027FB2068816801F00701062903D0016867
:1012900041F001010160002010BD000010B586B0D2
:1012A000044614216846FEF7C5FF0E4920688842AF
:1012B00016D10D480021026842F002020260006867
:1012C00000F0020005904FF4007000900220CDE97C
:1012D00001010320CDE9031069460448FFF73EFAF7
:1012E00006B010BD00480140303802400004024002
:1012F00070B5044690F83C000D4601280DD001263B
:1013000084F83C60022084F83D0042B1042A18D0E1
:10131000082A2AD00C2A4DD139E0022070BD20685D
:1013200000F0EEFA2068816941F0080181612068CF
:10133000816921F004018161206881692A69114372
:1013400011E0206800F00CFB2068816941F4006125
:1013500081612068816921F48061816120688169EF
:101360002A6941EA0221816124E0206800F02EFB15
:101370002068C16941F00801C1612068C16921F09C
:101380000401C1612068C1692A69114311E0206824
:1013900000F050FB2068C16941F40061C161206820
:1013A000C16921F48061C1612068C1692A6941EA8B
:1013B0000221C16184F83D60002084F83C0070BDCA
:1013C00010B5040003D094F83D0010B107E00120EF
:1013D00010BD002084F83C00204600F00CF80220EC
:1013E00084F83D00211D206800F00EFA012084F8E9
:1013F0003D00002010BD704710B504460068012272
:1014000000F066FA0B492068884202D00A498842F7
:1014100003D1416C41F4004141642068816801F0CE
:101420000701062903D0016841F001010160002095
:1014300010BD0000000001400004014002460020F1
:1014400041B1042909D008290AD00C2901D110681A
:10145000006C70471068406B70471068806B704775
:101460001068C06B704770B5044690F83C000128C6
:1014700012D0012584F83C50022084F83D0020461B
:1014800000F000FB01004FF0000007D084F83D5051
:1014900084F83C00012070BD022070BD2168CA683C
:1014A00022F04002CA602168CA6822F48042CA6001
:1014B00084F83D5084F83C00002070BD70B50400F5
:1014C00004D094F83900002510B106E0012070BD69
:1014D00084F83850204600F023F8242084F839009E
:1014E0002068C16821F40051C160204600F08CFBE7
:1014F0002068016921F4904101612068416921F06F
:101500002A0141612068C16841F40051C160E5636E
:10151000202084F8390084F83A00002070BD0000D3
:1015200010B586B0044614216846FEF783FE1349C1
:101530002068884220D112480021026842F400321B
:101540000260006800F4003005900D481038026811
:1015500042F001020260006800F0010005900C20DA
:1015600000900220CDE901010320039007200490A0
:1015700069460448FFF7F2F806B010BD0044004089
:101580004038024000000240FEE7000000B587B08E
:1015900014216846FEF74EFE16480021026842F00C
:1015A00001020260026802F001020592026842F044
:1015B00004020260026802F004020592026842F02E
:1015C00002020260006800F0020005900120009015
:1015D0000948CDE9010169460848FFF7BFF8002234
:1015E00001210620FFF704FA0620FFF7F3F907B000
:1015F00000BD000030380240000011100000024021
:1016000010B588B01C216846FEF714FE1548144931
:1016100000240160C721C0E9011449F63F41C0E937
:1016200003148461FFF70CFD08B1FFF75CF80D4867
:10163000FFF7C6FE08B1FFF756F86020CDE90004B9
:1016400002940022694607480494FFF751FE08B14E
:10165000FFF749F80348FFF721FE08B010BD00006E
:1016600000480140A800002030B58BB0142104A828
:10167000FEF7E0FD002427480A94099400940194A1
:1016800002942349039401604F21C0E901144FF6ED
:10169000FF71C0E9031444618461FFF7D1FC08B114
:1016A000FFF721F81B48FFF7CAFD08B1FFF71BF849
:1016B0000420049060200A250894CDE9050504A9BA
:1016C0001448FFF7D0FE08B1FFF70DF8099409A9F7
:1016D00010480A94FFF76CFC08B1FFF704F80120EA
:1016E0000095CDE90104002269460A480394FFF7FA
:1016F00017FD08B1FEF7F7FF042269460548FFF71A
:101700000FFD002801D0FEF7EEFF0BB030BD00004A
:1017100000040140680000200C4810B50A4901602F
:101720004FF4E1314160002181600C22C160C0E9C9
:1017300004128161C161FFF7C1FE002803D0BDE83A
:101740001040FEF7D0BF10BD00440040E80000206C
:10175000FEE7FEE770477047FFF7E2B830B593B099
:1017600030216846FEF766FD14210CA8FEF762FDE5
:101770001C480025016841F080510160006800F0BC
:10178000805011901848016841F480410160006860
:10179000022400F480401190012003901020049056
:1017A000009406940820CDE90750A020CDE9090453
:1017B00004200B906846FFF739FA08B172B6FEE7CD
:1017C0000CA90F2081E831004FF4A0500F90109029
:1017D00005210CA8FFF73EF9002801D072B6FEE7FC
:1017E00013B030BD40380240007000400548016829
:1017F00041F47001016003494FF0006080390860D6
:101800007047000088ED00E0F0B50268254C264DD9
:10181000264E274F274B4FF0804CA04209D0604501
:1018200007D0A84205D0B04203D0B84201D09842B8
:1018300004D122F0700E4A6842EA0E02A0421BD088
:10184000604519D0A84217D0B04215D0B84213D085
:10185000984211D0184DA8420ED0184DA8420BD076
:10186000174DA84208D0174DA84205D0164DA842E2
:1018700002D0164DA84203D122F44075CA682A430B
:101880004D6922F080022A4302608A68C2620A68B7
:101890008262A04201D0984201D10969016301210D
:1018A0004161F0BD0000014000040040000800401C
:1018B000000C004000040140004001400044014091
:1018C0000048014000180040001C0040002000407B
:1018D00010B501F01F030121046A99408C43046292
:1018E000016A9A401143016210BD10B5846842EA52
:1018F000032224F47F440A432243826010BD000087
:10190000F0B5026A22F001020262036A4268846949
:10191000124E24F073050C682C4323F002058B68EB
:101920002B430D4DA84201D0B04205D123F008074A
:10193000CB683B4323F00403A84201D0B04205D159
:101940004D6922F4407215438A692A4342608461DA
:10195000496841630362F0BD00000140000401409A
:10196000F0B5026A22F010020262026A43688469DA
:101970000D6824F4E64444EA05248D6822F0200230
:1019800042EA05120F4D104EA84201D0B04206D1D6
:10199000CF6822F0800242EA071222F04002A842F9
:1019A00001D0B04207D14D6923F4406343EA850377
:1019B0008D6943EA850343608461496881630262FB
:1019C000F0BD00000000014000040140F0B5026AD3
:1019D00022F480720262026A4368C46922F40072CF
:1019E00024F073050C68124E2C438D6842EA0522E0
:1019F0000E4DA84201D0B04206D1CF6822F4006259
:101A000042EA072222F48062A84201D0B04207D104
:101A10004D6923F4405343EA05138D6943EA0513E6
:101A20004360C4614968C1630262F0BD00000140C7
:101A30000004014030B5026A22F480520262046A56
:101A40004268C3690D6823F4E64343EA05238D68C1
:101A500024F4005444EA0534084DA84202D0084D4D
:101A6000A84204D14D6922F4804242EA85124260C4
:101A7000C36149680164046230BD00000000014098
:101A80000004014010B503689A6822F070044A68A7
:101A9000224322F007040A6822439A604A6812F03F
:101AA0000F0F30D11211082A2DD2DFE802F02C2CB2
:101AB0002C2C0B2127040B69D1E902210068FFF7C8
:101AC00014FF20E00A68052A10D00268136A146A1D
:101AD00024F00104146202689469096924F0F00496
:101AE00044EA01119161006803620CE0012010BD1D
:101AF0000A698968006800F008F804E00A698968E2
:101B0000006800F053F8002010BD10B5036A046AA5
:101B100024F001040462846924F0F00444EA02140D
:101B200023F00A020A438461026210BD70B5046AA0
:101B300024F0010404628469056A154EB04214D091
:101B4000B0F1804F11D0134EB0420ED0124EB042C1
:101B50000BD0124EB04208D0114EB04205D0114EFB
:101B6000B04202D0104EB04203D124F0030414431B
:101B700001E044F001041A0724F0F00444EA126280
:101B800025F00A0301F00A0119438261016270BD68
:101B9000000001400004004000080040000C00402C
:101BA00000040140004001400018004010B5036AE5
:101BB00023F0100303628369046A23F4704343EA49
:101BC000023224F0A00343EA01118261016210BDD8
:101BD00030B5046A24F0100404628469056A24F4B0
:101BE000407444EA022222F470444FF6FF7202EA83
:101BF00003322243A02425F0A00304EA0111194373
:101C00008261016230BD00002DE9F04104460068A8
:101C10000169E26821F44051114301612169A06822
:101C2000E26908436169114308432168CA6849F2BF
:101C30000C639A430243CA6020684169A26921F497
:101C4000407111434161E069192764253226B0F5DE
:101C5000004F354A354920684FF0000806D08842C9
:101C600001D0904236D1FEF79FFF35E0884201D087
:101C7000904202D1FEF798FF01E0FEF785FF616810
:101C80004A18A0FB070148EB0803FEF79BFA014640
:101C9000B0FBF5F00201B1FBF5F06FF0180358430B
:101CA00001EB800006EBC000B0FBF5F000F0F8009F
:101CB00002EB4002B1FBF5F0584301EB800006EB6C
:101CC000C000B0FBF5F000F0070021681044886008
:101CD000BDE8F081FEF758FF61688B0F8A00A0FB1A
:101CE0000701FEF76FFA0146B0FBF5F06FF018023E
:101CF000504301EB800006EB0010B0FBF5F000F064
:101D0000F002B1FBF5F002EB0012B1FBF5F06FF061
:101D10001803584301EB800006EB0010B0FBF5F010
:101D200000F00F00D1E70000001401400010014056
:101D3000FEE70907090E002804DB00F1E02080F827
:101D40000014704700F00F0000F1E02080F8141D2F
:101D5000704702E008C8121F08C1002AFAD1704774
:101D60007047002001E001C1121F002AFBD170471B
:101D70002DED088BFEF7DCFDFFF7F0FCFFF706FC0E
:101D8000FFF772FCFFF73CFCFFF7C6FC3F48FFF78C
:101D9000B5F93E48FFF7B2F900213C48FFF72CFBAC
:101DA00000213B48FFF767FA3A49032008603A4CA4
:101DB000FEF7B0FDA168401A6428F9D3FEF7AAFD2A
:101DC000A06000213248FFF739FB606094ED140BEE
:101DD00094ED12AB054653EC102B51EC1A0BFEF7A9
:101DE000D5FA94ED060B94ED04BB41EC180B53ECC3
:101DF000102B51EC1B0BFEF7C9FA9FED289B53ECFF
:101E0000192BFEF7C9FA53EC182BFEF737FB41EC00
:101E1000180B53EC1A2B84ED0C8BFEF7BDFA41EC3A
:101E20001A0B53EC192B51EC1B0BFEF7B5FA53ECC4
:101E30001A2BFEF7ABFA41EC1A0B284684ED0EABD9
:101E4000FEF78BFB53EC182BFEF7A6FA53EC1A2B7C
:101E5000FEF7FBF900EE105A9FED121A41EC180B39
:101E6000F8EE400A84ED108B80EE810A10EE100A25
:101E7000FEF780FBC4E9080153EC192B51EC180B59
:101E8000FEF7FCFAC4E90A0192E70000A80000206E
:101E900068000020344801400000002000000000DD
:101EA00000004D40000068420000000000000000FB
:101EB00001020304060708090000000001020304F0
:101EC000E01E00080000002068000000521D00080D
:101ED000481F000868000020C0040000621D0008C0
:101EE00000000000000000000000000000000000F2
:101EF0000000000000000840000000000000244036
:101F000000000000000000000000000000000000D1
:101F100000000000000000000000000000000000C1
:101F200000000000000000000000000000000000B1
:101F30000000000000000000010000001000000090
:081F4000000000000024F40081
:040000050800018965
:00000001FF
